:100000000C945C000C9479000C9479000C947900A9
:100010000C9479000C9479000C9479000C9479007C
:100020000C9479000C9479000C9479000C9479006C
:100030000C9479000C9479000C9479000C9479005C
:100040000C94A0000C9479000C9479000C94790025
:100050000C9479000C9479000C9479000C9479003C
:100060000C9479000C947900000000002400270013
:100070002A0000000000250028002B0004040404CE
:100080000404040402020202020203030303030342
:10009000010204081020408001020408102001021F
:1000A00004081020000000080002010000030407FB
:1000B000000000000000000011241FBECFEFD8E0B8
:1000C000DEBFCDBF11E0A0E0B1E0EEEDF3E002C095
:1000D00005900D92A231B107D9F721E0A2E1B1E07C
:1000E00001C01D92AB31B207E1F70E94EA000C9407
:1000F000ED010C9400003FB7F894809117019091A6
:100100001801A0911901B0911A0126B5A89B05C04C
:100110002F3F19F00196A11DB11D3FBFBA2FA92F86
:10012000982F8827BC01CD01620F711D811D911D83
:1001300042E0660F771F881F991F4A95D1F70895EF
:100140001F920F920FB60F9211242F933F938F930C
:100150009F93AF93BF938091130190911401A0914D
:100160001501B09116013091120123E0230F2D37B4
:1001700058F50196A11DB11D209312018093130122
:1001800090931401A0931501B0931601809117016B
:1001900090911801A0911901B0911A010196A11D29
:1001A000B11D8093170190931801A0931901B0938A
:1001B0001A01BF91AF919F918F913F912F910F9015
:1001C0000FBE0F901F90189526E8230F0296A11DD1
:1001D000B11DD2CF789484B5826084BD84B581602E
:1001E00084BD85B5826085BD85B5816085BD809102
:1001F0006E00816080936E0010928100809181007A
:100200008260809381008091810081608093810071
:10021000809180008160809380008091B100846033
:100220008093B1008091B00081608093B000809194
:100230007A00846080937A0080917A008260809353
:100240007A0080917A00816080937A0080917A00B0
:10025000806880937A001092C10027E031E0A0E02E
:10026000B1E08D9190E0FC01E057FF4F449184583C
:100270009F4FFC018491882399F090E0880F991F8B
:10028000FC01E859FF4FC591D491FC01EE58FF4F96
:10029000859194918FB7F894E881E42BE8838FBF20
:1002A0002A173B07F1F600E010E0C7E0D1E02AE0B2
:1002B000F22EA0E0B1E030E020E0622F8D9190E0DE
:1002C000FC01EC55FF4F5491FC01E057FF4F449166
:1002D000FC01E458FF4FE491EE2329F18881552376
:1002E00059F0533009F45FC008F052C0513009F49E
:1002F00060C0523009F461C0F0E0EE0FFF1FEE580D
:10030000FF4FC590D4905FB7F89490E002C09595E8
:1003100087956A95E2F7F60180FD5CC08081409583
:10032000482340835FBF2F5F3F4F2730310509F0DF
:10033000C4CF0E947B002B013C0188EC882E912CBD
:10034000A12CB12C0E947B006419750986099709BC
:10035000683E734081059105A8F3F1E08F1A91087A
:10036000A108B10828EE420E23E0521E611C711C48
:1003700081149104A104B10429F7FA942196F11093
:1003800098CF0115110509F490CF0E9400008DCF80
:100390005730B1F05830D1F0543009F0ADCF9091D2
:1003A00080009F7D03C0909180009F779093800094
:1003B000A3CF94B59F7794BD9FCF94B59F7DFBCF7E
:1003C0009091B0009F779093B00096CF9091B0003D
:0E03D0009F7DF9CF8081482BA4CFF894FFCFFA
:1003DE00020304050607083F065B4F666D7D077F27
:0203EE006F009E
:00000001FF

