:100000000C9453000C942B020C9404020C947B006F
:100010000C947B000C947B000C947B000C947B0074
:100020000C947B000C947B000C947B000C947B0064
:100030000C947B000C947B000C947B000C947B0054
:100040000C94BA010C947B000C9478020C9452022C
:100050000C947B000C947B000C947B000C947B0034
:100060000C947B000C947B0000000000250028000D
:100070002B0000000000240027002A0004040404D0
:100080000404040402020202020203030303030342
:10009000010204081020408001020408102001021F
:1000A00004081020C40311241FBECFEFD8E0DEBF28
:1000B000CDBF11E0A0E0B1E0E6E3F8E002C00590BA
:1000C0000D92AA31B107D9F721E0AAE1B1E001C050
:1000D0001D92A23CB207E1F710E0C3E5D0E004C0F6
:1000E0002197FE010E941304C235D107C9F70E946F
:1000F000AA020C9419040C9400003FB7F894809164
:10010000BE019091BF01A091C001B091C10126B57F
:10011000A89B05C02F3F19F00196A11DB11D3FBF3F
:10012000BA2FA92F982F8827BC01CD01620F711D0E
:10013000811D911D42E0660F771F881F991F4A9508
:10014000D1F708958091B7019091B80101969093ED
:10015000B8018093B70108950895AF92BF92CF92EE
:10016000DF92EF92FF920F931F93CF93DF936C0177
:100170007B018B01040F151FEB015E01AE18BF0858
:10018000C017D10759F06991D601ED91FC9101900A
:10019000F081E02DC6010995892B79F7C501DF9122
:1001A000CF911F910F91FF90EF90DF90CF90BF9074
:1001B000AF900895FC01538D448D252F30E0842F9E
:1001C00090E0821B930B541710F0CF96089501977F
:1001D0000895FC01918D828D981761F0A28DAE0F6C
:1001E000BF2FB11D5D968C91928D9F5F9F73928FF3
:1001F00090E008958FEF9FEF0895FC01918D828D1F
:10020000981731F0828DE80FF11D858D90E00895EB
:100210008FEF9FEF0895FC01918D228D892F90E043
:10022000805C9F4F821B91098F73992708958AE103
:1002300091E00E940B0121E0892B09F420E0822F3C
:10024000089580E090E0892B29F00E941701811128
:100250000C9400000895FC01A48DA80FB92FB11DC6
:10026000A35ABF4F2C91848D90E001968F739927EC
:10027000848FA689B7892C93A089B1898C918370CA
:1002800080648C93938D848D981306C00288F389C3
:10029000E02D80818F7D80830895EF92FF920F93F0
:1002A0001F93CF93DF93EC0181E0888F9B8D8C8D22
:1002B00098131AC0E889F989808185FF15C09FB716
:1002C000F894EE89FF896083E889F98980818370D9
:1002D000806480839FBF81E090E0DF91CF911F9188
:1002E0000F91FF90EF900895F62E0B8D10E00F5FA9
:1002F0001F4F0F731127E02E8C8D8E110CC00FB67F
:1003000007FCFACFE889F989808185FFF5CFCE0116
:100310000E942B01F1CFEB8DEC0FFD2FF11DE35A65
:10032000FF4FF0829FB7F8940B8FEA89FB89808199
:100330008062CFCFCF93DF93EC01888D8823B9F013
:10034000AA89BB89E889F9898C9185FD03C08081E0
:1003500086FD0DC00FB607FCF7CF8C9185FFF2CF5D
:10036000808185FFEDCFCE010E942B01E9CFDF9187
:10037000CF9108951F920F920FB60F9211242F93D1
:100380003F938F939F93AF93BF938091BA019091C6
:10039000BB01A091BC01B091BD013091B90123E036
:1003A000230F2D3758F50196A11DB11D2093B901DA
:1003B0008093BA019093BB01A093BC01B093BD019F
:1003C0008091BE019091BF01A091C001B091C10187
:1003D0000196A11DB11D8093BE019093BF01A09312
:1003E000C001B093C101BF91AF919F918F913F9197
:1003F0002F910F900FBE0F901F90189526E8230F96
:100400000296A11DB11DD2CF1F920F920FB60F926F
:1004100011242F933F934F935F936F937F938F9309
:100420009F93AF93BF93EF93FF93E0910201F091FD
:1004300003010995FF91EF91BF91AF919F918F912A
:100440007F916F915F914F913F912F910F900FBED0
:100450000F901F9018951F920F920FB60F921124B4
:100460002F933F934F935F936F937F938F939F93BC
:10047000AF93BF93EF93FF93E0910001F0910101DF
:100480000995FF91EF91BF91AF919F918F917F91CE
:100490006F915F914F913F912F910F900FBE0F90F1
:1004A0001F9018951F920F920FB60F9211242F9341
:1004B0003F934F935F936F937F938F939F93AF93EC
:1004C000BF93EF93FF938AE191E00E942B01FF918C
:1004D000EF91BF91AF919F918F917F916F915F91BC
:1004E0004F913F912F910F900FBE0F901F90189535
:1004F0001F920F920FB60F9211242F938F939F93F9
:10050000EF93FF93E0912A01F0912B018081E0911C
:100510003001F091310182FD1BC090818091330147
:100520008F5F8F7320913401821741F0E091330186
:10053000F0E0E65EFE4F958F80933301FF91EF91DF
:100540009F918F912F910F900FBE0F901F90189534
:100550008081F4CFCF93DF93CDB7DEB7A1970FB6ED
:10056000F894DEBF0FBECDBF789484B5826084BDA1
:1005700084B5816084BD85B5826085BD85B58160A7
:1005800085BD80916E00816080936E001092810025
:1005900080918100826080938100809181008160E0
:1005A00080938100809180008160809380008091A1
:1005B000B10084608093B1008091B000816080932D
:1005C000B00080917A00846080937A0080917A00F4
:1005D000826080937A0080917A00816080937A00B3
:1005E00080917A00806880937A001092C100E2E9DD
:1005F000F0E02491EEE7F0E084918823C9F090E0E8
:10060000880F991FFC01EE58FF4F45915491FC0152
:10061000E859FF4FA591B4919FB7F894FA01308142
:10062000822F809583238083EC91E22BEC939FBFF4
:1006300082EA90E09093010180930001809169002B
:100640008C7F826080936900E89AE0912A01F091A2
:100650002B0182E08083E0912601F0912701108236
:10066000E0912801F091290180E18083109232010C
:10067000E0912E01F0912F0186E08083E0912C0122
:10068000F0912D01808180618083E0912C01F091B7
:100690002D01808188608083E0912C01F0912D01F3
:1006A000808180688083E0912C01F0912D01808110
:1006B0008F7D80839AE0892E912CA12CB12C20E093
:1006C000222E20E0322EF8942091B7013091B8010B
:1006D000789450E040E019A28E010F5D1F4FCA01CF
:1006E000B901A50194010E94F103605DF8016293D4
:1006F0008F01211531054105510589F7309761F0CA
:1007000001900020E9F73197AF01401B510BB80170
:100710008AE191E00E94AD0042E050E066E171E0C4
:100720008AE191E00E94AD000E947D006B017C0196
:1007300082E3482E512C612C712C0E947D006C1993
:100740007D098E099F09683E734081059105A8F3D4
:10075000F1E04F1A51086108710828EEC20E23E03B
:10076000D21EE11CF11C411451046104710429F7EB
:100770002114310409F4A7CF0E941701882309F43A
:10078000A2CF0E9400009FCFEAE1F1E01382128223
:1007900088EE93E0A0E0B0E084839583A683B783DE
:1007A00088E091E09183808385EC90E09587848751
:1007B00084EC90E09787868780EC90E0918B808B2B
:1007C00081EC90E0938B828B82EC90E0958B848B14
:1007D00086EC90E0978B868B118E128E138E148E82
:1007E0000895A1E21A2EAA1BBB1BFD010DC0AA1F72
:1007F000BB1FEE1FFF1FA217B307E407F50720F08A
:10080000A21BB30BE40BF50B661F771F881F991F04
:100810001A9469F760957095809590959B01AC014D
:10082000BD01CF010895EE0FFF1F0590F491E02D5B
:060830000994F894FFCFCB
:10083600AC00AC00000000004D01AD00DA009A01EA
:0A0846000B01E900FD000D0A00009F
:00000001FF
