:100000000C945D000C947A000C947A000C947A00A5
:100010000C947A000C947A000C947A000C94610190
:100020000C947A000C947A000C947A000C947A0068
:100030000C947A000C947A000C947A000C947A0058
:100040000C9417010C947A000C947A000C947A00AA
:100050000C947A000C947A000C947A000C947A0038
:100060000C947A000C947A00000000080002010051
:100070000003040700000000000000000000000072
:10008000240027002A0001020408102040800102F9
:1000900004081020010204081020000000002500C0
:1000A00028002B00040404040404040402020202D5
:1000B0000202030303030303020011241FBECFEF58
:1000C000D8E0DEBFCDBF11E0A0E0B1E0E4E3F6E0B0
:1000D00002C005900D92A230B107D9F721E0A2E04D
:1000E000B1E001C01D92AC31B207E1F70E94BD0141
:1000F0000C9418030C9400003FB7F89480911801F9
:1001000090911901A0911A01B0911B0126B5A89BED
:1001100005C02F3F19F00196A11DB11D3FBFBA2F99
:10012000A92F982F8827BC01CD01620F711D811D59
:10013000911D42E0660F771F881F991F4A95D1F7DE
:1001400008959091000189130DC0E8EBF0E0E4916F
:100150009FEF90930001E13009F431C068F1E23083
:1001600009F433C090E0FC01E859FF4F2491FC01F1
:10017000EA57FF4F3491FC01EC55FF4FE491EE2319
:10018000D1F0222351F0233009F43AC078F5213020
:1001900009F43CC0223009F43DC0F0E0EE0FFF1F2F
:1001A000E656FF4FA591B4918FB7F894EC91309536
:1001B0003E233C938FBF089510926E00D3CF909151
:1001C0006F009D7F90936F00CDCF909170009D7FC9
:1001D0009093700091E09093B0009091B100987F5F
:1001E00094609093B1001092B300BCCF2730A9F077
:1001F0002830C9F0243089F6809180008F7D03C0BB
:10020000809180008F7780938000C7CF84B58F77EF
:1002100084BDC3CF84B58F7DFBCF8091B0008F7735
:100220008093B000BACF8091B0008F7DF9CF1F923C
:100230000F920FB60F9211242F933F938F939F939A
:10024000AF93BF938091140190911501A091160175
:10025000B09117013091130123E0230F2D3758F58A
:100260000196A11DB11D2093130180931401909359
:100270001501A0931601B093170180911801909178
:100280001901A0911A01B0911B010196A11DB11D88
:100290008093180190931901A0931A01B0931B0148
:1002A000BF91AF919F918F913F912F910F900FBE72
:1002B0000F901F90189526E8230F0296A11DB11DDF
:1002C000D2CF1F920F920FB60F9211242F933F930C
:1002D0004F935F936F937F938F939F93AF93BF934E
:1002E000EF93FF938091070190910801A09109017C
:1002F000B0910A01892B8A2B8B2BD1F190910201AD
:10030000E0910301F091040180818927808380912D
:10031000070190910801A0910901B0910A011816F6
:1003200019061A061B069CF480910701909108019A
:10033000A0910901B0910A010197A109B109809327
:10034000070190930801A0930901B0930A01FF915E
:10035000EF91BF91AF919F918F917F916F915F913D
:100360004F913F912F910F900FBE0F901F901895B6
:10037000809100010E94A100EACF789484B5826048
:1003800084BD84B5816084BD85B5826085BD85B539
:10039000816085BD80916E00816080936E001092B7
:1003A0008100809181008260809381008091810032
:1003B00081608093810080918000816080938000C3
:1003C0008091B10084608093B1008091B000816021
:1003D0008093B00080917A00846080937A0080914D
:1003E0007A00826080937A0080917A0081608093A5
:1003F0007A0080917A00806880937A001092C10020
:1004000080910001883089F18F3FA9F10E947C0022
:100410004B015C0184EFC82EDD24D394E12CF12C38
:100420000E947C00681979098A099B09683E73401B
:1004300081059105A8F321E0C21AD108E108F1086D
:1004400088EE880E83E0981EA11CB11CC114D10453
:10045000E104F10429F788E00E94A100C0E0D0E0A7
:100460002097F1F30E940000FBCFE8EBF0E08491CD
:1004700087FDCCCF49C088E080930001E8EBF0E035
:1004800084918F3F09F4C2CF813009F478C020F104
:10049000823071F71092B0001092B1009091B000CC
:1004A00092609093B0009091B10091609093B100F0
:1004B000ECEAF0E0E491F0E0EE0FFF1FE656FF4FAC
:1004C000259134913093040120930301EEE8F0E08C
:1004D000E491E093020118C014BC15BC84B582609D
:1004E00084BD85B5816085BDECEAF0E0E491F0E083
:1004F000EE0FFF1FE656FF4F85919491EEE8F0E076
:10050000E491E093060180E0EEE8F0E09491ECEAFB
:10051000F0E02491222399F030E0220F331FF901FB
:10052000E458FF4FA591B491F901E656FF4F25918C
:1005300034912FB7F894EC91E92BEC932FBF8823DB
:1005400009F45FC0823009F038C08091B100887F23
:1005500085608093B1008DE88093B3008FEF9FEFAB
:10056000DC018093070190930801A0930901B093E7
:100570000A018091700082608093700047CF1092D2
:10058000800010928100909181009860909381008A
:1005900090918100916090938100ECEAF0E0E49109
:1005A000F0E0EE0FFF1FE656FF4F25913491EEE885
:1005B000F0E0E491E0930501A7CF8130E9F4809168
:1005C0008100887F81608093810084E097E490932C
:1005D0008900809388008FEF9FEFDC0180930B01EF
:1005E00090930C01A0930D01B0930E0180916F00C8
:1005F000826080936F000ACF823009F007CF84E0D9
:10060000ABCF85B5887F846085BD86E487BD8FEFDD
:100610009FEFDC0180930F0190931001A0931101D3
:10062000B093120180916E00826080936E00EECED6
:04063000F894FFCF6C
:02063400FF00C5
:00000001FF

