:100000000C945C000C946E000C946E000C946E00CA
:100010000C946E000C946E000C946E000C946E00A8
:100020000C946E000C946E000C946E000C946E0098
:100030000C946E000C946E000C946E000C946E0088
:100040000C948C000C946E000C946E000C946E005A
:100050000C946E000C946E000C946E000C946E0068
:100060000C946E000C946E00000000080002010069
:100070000003040700000000000000000000000072
:10008000250028002B0000000000240027002A0083
:10009000040404040404040402020202020203032E
:1000A0000303030301020408102040800102040836
:1000B000102001020408102011241FBECFEFD8E049
:1000C000DEBFCDBF21E0A0E0B1E001C01D92A930AC
:1000D000B207E1F70E94D6000C94BB010C9400001B
:1000E000EDEAF0E02491E9E9F0E08491882399F0C9
:1000F00090E0880F991FFC01EA57FF4FA591B4913A
:10010000FC01E458FF4F859194918FB7F894EC91DE
:10011000E22BEC938FBF08951F920F920FB60F92B0
:1001200011242F933F938F939F93AF93BF9380910D
:10013000050190910601A0910701B091080130914D
:10014000040123E0230F2D3758F50196A11DB11DA1
:10015000209304018093050190930601A093070169
:10016000B09308018091000190910101A0910201DA
:10017000B09103010196A11DB11D809300019093E0
:100180000101A0930201B0930301BF91AF919F9130
:100190008F913F912F910F900FBE0F901F90189548
:1001A00026E8230F0296A11DB11DD2CF789484B505
:1001B000826084BD84B5816084BD85B5826085BD63
:1001C00085B5816085BD80916E00816080936E00F1
:1001D00010928100809181008260809381008091E3
:1001E0008100816080938100809180008160809394
:1001F00080008091B10084608093B1008091B00054
:1002000081608093B00080917A00846080937A004E
:1002100080917A00826080937A0080917A00816078
:1002200080937A0080917A00806880937A0010929F
:10023000C1000E947000C1E7D0E000E810E09DEA34
:10024000C92E90E0D92E29E9A22E20E0B22E30E866
:10025000932E40E0E42E40E0F42E0E947000FE0158
:100260008491833009F44BC050F5813009F437C0D4
:10027000823009F43FC0FE018491F6019491F501AA
:100280002491222381F1882359F0833009F45CC042
:1002900008F04FC0813009F45DC0823009F45EC0BF
:1002A000E22FF0E0EE0FFF1FE458FF4FA591B4914D
:1002B0008FB7F8942C91922B9C938FBF14C08730EA
:1002C00041F1883071F18430B1F680918000806214
:1002D0008093800010938B0000938A0004C084B543
:1002E000806884BD97BCE114F10409F4B6CF0E9484
:1002F0000000B3CF84B5806284BD98BCF4CF8091F8
:1003000080008068809380001093890000938800AB
:10031000EACF8091B00080688093B0009092B300E3
:10032000E2CF8091B00080628093B0009092B400E0
:10033000DACF8730B1F08830D1F0843009F0B0CF17
:10034000809180008F7D03C0809180008F778093A3
:100350008000A6CF84B58F7784BDA2CF84B58F7D72
:10036000FBCF8091B0008F778093B00099CF8091C0
:0A037000B0008F7DF9CFF894FFCFA5
:00000001FF
