:100000000C945D000C9485000C9485000C94850084
:100010000C9485000C9485000C9485000C9485004C
:100020000C9485000C9485000C9485000C94DD01E3
:100030000C9485000C9485000C9485000C9485002C
:100040000C9493010C9485000C9485000C9485000D
:100050000C9485000C9485000C9485000C9485000C
:100060000C9485000C9485000000000024002700FB
:100070002A0000000000250028002B0004040404CE
:100080000404040402020202020203030303030342
:10009000010204081020408001020408102001021F
:1000A00004081020000000080002010000030407FB
:1000B0000000000000000000600311241FBECFEF0D
:1000C000D8E0DEBFCDBF11E0A0E0B1E0E4EEF7E0A4
:1000D00002C005900D92A030B107D9F721E0A0E051
:1000E000B1E001C01D92A233B207E1F710E0CDE507
:1000F000D0E004C02197FE010E94EA03CC35D1076D
:10010000C9F70E9499020C94F0030C9400008F929E
:100110009F92AF92BF92FF920F931F93CF93DF9363
:10012000F0902F012BE02F1508F44CC020913101E5
:1001300008E512E0021B110927FD1395000F111F9E
:10014000000F111F20913001C8E8D0E0C21BD10977
:1001500027FDD395CC0FDD1FCC0FDD1F4E010D2EDB
:10016000000CAA08BB089801012E000C440B550B8B
:10017000281939094A095B09DC010E94A50324EB0F
:1001800030E040E050E00E947B03820E931EA41EEC
:10019000B51E8C169D062CF0E801801691060CF415
:1001A000E4012297CC0FDD1F2FB7F8948F2D90E03C
:1001B000FC01EE0FFF1FE80FF91FE55FFE4FD28332
:1001C000C1832FBFDF91CF911F910F91FF90BF90FF
:1001D000AF909F908F90089590E0FC01EC55FF4FF9
:1001E0002491FC01E057FF4F3491FC01E458FF4F8C
:1001F000E491EE23C9F0222339F0233001F1A8F471
:10020000213019F1223029F1F0E0EE0FFF1FEE58F6
:10021000FF4FA591B4918FB7F894EC91611126C06E
:1002200030953E233C938FBF08952730A9F02830A6
:10023000C9F0243049F7809180008F7D03C0809100
:1002400080008F7780938000DFCF84B58F7784BD67
:10025000DBCF84B58F7DFBCF8091B0008F7780930B
:10026000B000D2CF8091B0008F7DF9CF3E2BDACF96
:100270003FB7F8948091070190910801A09109017E
:10028000B0910A0126B5A89B05C02F3F19F0019631
:10029000A11DB11D3FBFBA2FA92F982F8827BC01E0
:1002A000CD01620F711D811D911D42E0660F771F08
:1002B000881F991F4A95D1F708958F929F92AF9208
:1002C000BF92CF92DF92EF92FF920E9438014B01D2
:1002D0005C0188EEC82E83E0D82EE12CF12C0E9420
:1002E0003801681979098A099B09683E73408105BC
:1002F0009105A8F321E0C21AD108E108F10888EEBF
:10030000880E83E0981EA11CB11CC114D104E10425
:10031000F10429F7FF90EF90DF90CF90BF90AF905E
:100320009F908F9008951F920F920FB60F921124F5
:100330002F933F938F939F93AF93BF93809103012C
:1003400090910401A0910501B09106013091020144
:1003500023E0230F2D3758F50196A11DB11D2093E1
:1003600002018093030190930401A0930501B093CF
:1003700006018091070190910801A0910901B091B7
:100380000A010196A11DB11D8093070190930801F8
:10039000A0930901B0930A01BF91AF919F918F91F2
:1003A0003F912F910F900FBE0F901F90189526E848
:1003B000230F0296A11DB11DD2CF1F920F920FB62F
:1003C0000F9211242F933F934F935F936F937F93DB
:1003D0008F939F93AF93BF93CF93DF93EF93FF934D
:1003E00080910101C0910001D0E087FF24C01092EC
:1003F000850010928400809101018F5F809301013C
:1004000080910101082E000C990B8C179D0724F494
:10041000809101018C30C4F180918400909185001D
:10042000049680349C4908F47AC0809184009091AD
:100430008500049676C080910101082E000C990B6E
:100440008C179D07C4F6E09101018E2FEE0F990BDA
:10045000FC01EE0FFF1FE80FF91FE55FFE4F8081E3
:1004600086FFC9CFE09101018E2FEE0F990BFC01A1
:10047000EE0FFF1FE80FF91FE55FFE4F808160E080
:100480008F730E94EC00B7CF2091840030918500DB
:10049000E09101018E2FEE0F990BFC01EE0FFF1F73
:1004A000E80FF91FE55FFE4F81819281820F931F54
:1004B0009093890080938800E09101018E2FEE0FC8
:1004C000990BFC01EE0FFF1FE80FF91FE55FFE4FD0
:1004D000808186FF11C0E09101018E2FEE0F990BF4
:1004E000FC01EE0FFF1FE80FF91FE55FFE4F808153
:1004F00061E08F730E94EC00FF91EF91DF91CF914B
:10050000BF91AF919F918F917F916F915F914F912B
:100510003F912F910F900FBE0F901F90189580E480
:100520009CE990938900809388008FEF809301016C
:10053000E3CF789484B5826084BD84B5816084BD46
:1005400085B5826085BD85B5816085BD80916E0071
:10055000816080936E0010928100809181008260A2
:1005600080938100809181008160809381008091DF
:1005700080008160809380008091B10084608093CE
:10058000B1008091B00081608093B00080917A00CA
:10059000846080937A0080917A00826080937A00F0
:1005A00080917A00816080937A0080917A008068DF
:1005B00080937A001092C10080912F018C3008F056
:1005C00068C0E9E9F0E02491E5E8F0E0849188234F
:1005D00099F090E0880F991FFC01E859FF4FA59111
:1005E000B491FC01EE58FF4F859194918FB7F89428
:1005F000EC91E22BEC938FBF80912F01282F30E0FC
:10060000F901EE0FFF1FE20FF31FE55FFE4F908130
:10061000907C9960908310923001109231012CE00F
:10062000622F0E94DE03829FB001112430E020E09F
:10063000AB01420F531FFA01EE0FFF1FE40FF51F2E
:10064000E55FFE4F908196FD16C02F5F3F4F2C3027
:10065000310571F781110FC01092800082E0809304
:1006600081001092850010928400B19A80916F00F1
:10067000826080936F00E0912F018E2F90E0FC014B
:10068000EE0FFF1FE80FF91FE55FFE4F80818064CA
:10069000808390E080E00E9487000E945D018AE5EF
:1006A00090E00E9487000E945D0184EB90E00E9430
:1006B0008700C0E0D0E02097F1F30E940000FBCF5C
:1006C000809100018C3098F491E0980F9093000194
:1006D00080932F0190E0FC01EE0FFF1FE80FF91F40
:1006E000E55FFE4F88EB9BE09283818308958FEF57
:1006F00080932F010895052E97FB1EF400940E940D
:10070000920357FD07D00E94AD0307FC03D04EF4BF
:100710000C94920350954095309521953F4F4F4F43
:100720005F4F089590958095709561957F4F8F4F9D
:100730009F4F08950E94CF03A59F900DB49F900DE9
:10074000A49F800D911D11240895B7FF0C949A0366
:100750000E949A03821B930B0895A1E21A2EAA1BF2
:10076000BB1BFD010DC0AA1FBB1FEE1FFF1FA21761
:10077000B307E407F50720F0A21BB30BE40BF50B5E
:10078000661F771F881F991F1A9469F760957095E7
:10079000809590959B01AC01BD01CF010895A29F6A
:1007A000B001B39FC001A39F700D811D1124911D45
:1007B000B29F700D811D1124911D0895991B79E040
:1007C00004C0991F961708F0961B881F7A95C9F7E1
:1007D00080950895EE0FFF1F0590F491E02D099488
:0407E000F894FFCFBB
:00000001FF

