:100000000C9462000C948A000C948A000C948A0070
:100010000C948A000C948A000C948A000C948A0038
:100020000C948A000C948A000C948A000C948A0028
:100030000C948A000C948A000C948A000C948A0018
:100040000C94BE010C948A000C942E020C940802AD
:100050000C948A000C948A000C948A000C948A00F8
:100060000C948A000C948A000000000025002800EF
:100070002B0000000000240027002A0000000000E0
:1000800023002600290004040404040404040202DA
:100090000202020203030303030301020408102007
:1000A0004080010204081020010204081020000012
:1000B0000008000201000003040700000000000027
:1000C00000009D0311241FBECFEFD8E0DEBFCDBFDF
:1000D00011E0A0E0B1E0E4EAF7E002C005900D9283
:1000E000A631B107D9F721E0A6E1B1E001C01D9228
:1000F000AC3BB207E1F710E0C2E6D0E004C02197C4
:10010000FE010E94CA03C136D107C9F70E946002EE
:100110000C94D0030C9400003FB7F8948091B80180
:100120009091B901A091BA01B091BB0126B5A89BED
:1001300005C02F3F19F00196A11DB11D3FBFBA2F79
:10014000A92F982F8827BC01CD01620F711D811D39
:10015000911D42E0660F771F881F991F4A95D1F7BE
:100160000895AF92BF92CF92DF92EF92FF920F93DA
:100170001F93CF93DF936C017B018B01040F151F3D
:10018000EB015E01AE18BF08C017D10759F06991A5
:10019000D601ED91FC910190F081E02DC601099509
:1001A000892B79F7C501DF91CF911F910F91FF90B6
:1001B000EF90DF90CF90BF90AF900895FC01538DEA
:1001C000448D252F30E0842F90E0821B930B541731
:1001D00010F0CF96089501970895FC01918D828DBE
:1001E000981761F0A28DAE0FBF2FB11D5D968C9157
:1001F000928D9F5F9F73928F90E008958FEF9FEF96
:100200000895FC01918D828D981731F0828DE80F51
:10021000F11D858D90E008958FEF9FEF0895FC010B
:10022000918D228D892F90E0805C9F4F821B9109D8
:100230008F739927089586E191E00E940F0121E0D4
:10024000892B09F420E0822F089580E090E0892B2B
:1002500029F00E941B0181110C9400000895FC01FB
:10026000A48DA80FB92FB11DA35ABF4F2C91848D17
:1002700090E001968F739927848FA689B7892C9374
:10028000A089B1898C91837080648C93938D848DC7
:10029000981306C00288F389E02D80818F7D8083CA
:1002A0000895EF92FF920F931F93CF93DF93EC018A
:1002B00081E0888F9B8D8C8D98131AC0E889F9890D
:1002C000808185FF15C09FB7F894EE89FF89608310
:1002D000E889F98980818370806480839FBF81E091
:1002E00090E0DF91CF911F910F91FF90EF900895D3
:1002F000F62E0B8D10E00F5F1F4F0F731127E02EAE
:100300008C8D8E110CC00FB607FCFACFE889F989E5
:10031000808185FFF5CFCE010E942F01F1CFEB8DBB
:10032000EC0FFD2FF11DE35AFF4FF0829FB7F894B9
:100330000B8FEA89FB8980818062CFCFCF93DF93D7
:10034000EC01888D8823B9F0AA89BB89E889F989ED
:100350008C9185FD03C0808186FD0DC00FB607FC22
:10036000F7CF8C9185FFF2CF808185FFEDCFCE0155
:100370000E942F01E9CFDF91CF9108951F920F9234
:100380000FB60F9211242F933F938F939F93AF93A8
:10039000BF938091B4019091B501A091B601B09145
:1003A000B7013091B30123E0230F2D3758F50196A3
:1003B000A11DB11D2093B3018093B4019093B501A9
:1003C000A093B601B093B7018091B8019091B901A3
:1003D000A091BA01B091BB010196A11DB11D8093FE
:1003E000B8019093B901A093BA01B093BB01BF913A
:1003F000AF919F918F913F912F910F900FBE0F90D2
:100400001F90189526E8230F0296A11DB11DD2CF8B
:100410001F920F920FB60F9211242F933F934F9379
:100420005F936F937F938F939F93AF93BF93EF935C
:10043000FF9386E191E00E942F01FF91EF91BF9120
:10044000AF919F918F917F916F915F914F913F916C
:100450002F910F900FBE0F901F9018951F920F9223
:100460000FB60F9211242F938F939F93EF93FF93C7
:10047000E0912601F09127018081E0912C01F0911B
:100480002D0182FD1BC0908180912F018F5F8F73A2
:1004900020913001821741F0E0912F01F0E0EA5EF7
:1004A000FE4F958F80932F01FF91EF919F918F9138
:1004B0002F910F900FBE0F901F9018958081F4CF51
:1004C000CF93DF93CDB7DEB7A1970FB6F894DEBF19
:1004D0000FBECDBF789484B5826084BD84B5816041
:1004E00084BD85B5826085BD85B5816085BD8091FF
:1004F0006E00816080936E00109281008091810077
:10050000826080938100809181008160809381006E
:10051000809180008160809380008091B100846030
:100520008093B1008091B00081608093B000809191
:100530007A00846080937A0080917A008260809350
:100540007A0080917A00816080937A0080917A00AD
:10055000806880937A001092C1005CE9252E50E0FB
:10056000352EF101249168E8E62E60E0F62EF701C1
:1005700084918823C9F090E0880F991FFC01EE5800
:10058000FF4FA591B491FC01E859FF4F459154915B
:100590009FB7F8943C91822F809583238C93FA0126
:1005A0008081282B20839FBFE0912601F0912701B5
:1005B00082E08083E0912201F09123011082E0919A
:1005C0002401F09125018FEC808310922E01E0919F
:1005D0002A01F0912B0186E08083E0912801F091BF
:1005E0002901808180618083E0912801F0912901B7
:1005F000808188608083E0912801F09129018081C9
:1006000080688083E0912801F091290180818F7DAD
:1006100080838E01005E1F4F30E0C32E30E0D32E6A
:10062000E0EBF0E08491F1019491F7012491222311
:10063000C9F0882359F0833009F468C008F05BC022
:10064000813009F469C0823009F46AC0E22FF0E019
:10065000EE0FFF1FE458FF4FA591B4918C919823A2
:1006600081E009F480E019A2805D88A3F80101907F
:100670000020E9F73197AF01401B510BB80186E12B
:1006800091E00E94B10042E050E062E171E086E159
:1006900091E00E94B1000E948C002B013C0184E695
:1006A000882E912CA12CB12C0E948C006419750904
:1006B00086099709683E734081059105A8F3F1E02A
:1006C0008F1A9108A108B10828EE420E23E0521EAD
:1006D000611C711C81149104A104B10429F7C11497
:1006E000D10409F49DCF0E941B01882309F498CFFF
:1006F0000E94000095CF8730B1F08830D1F084306F
:1007000009F0A4CF809180008F7D03C0809180008C
:100710008F77809380009ACF84B58F7784BD96CFF2
:1007200084B58F7DFBCF8091B0008F778093B00030
:100730008DCF8091B0008F7DF9CFE6E1F1E013829B
:10074000128288EE93E0A0E0B0E084839583A683D4
:10075000B78384E091E09183808385EC90E0958776
:10076000848784EC90E09787868780EC90E0918B7B
:10077000808B81EC90E0938B828B82EC90E0958B68
:10078000848B86EC90E0978B868B118E128E138E65
:10079000148E0895EE0FFF1F0590F491E02D09943B
:0407A000F894FFCFFB
:1007A400000000005101B100DE009E010F01ED00C8
:0607B40001010D0A000026
:00000001FF
